{
  "contractName": "Simplebank",
  "abi": [
    {
      "inputs": [],
      "stateMutability": "nonpayable",
      "type": "constructor"
    },
    {
      "inputs": [],
      "name": "numberOfFunders",
      "outputs": [
        {
          "internalType": "uint256",
          "name": "",
          "type": "uint256"
        }
      ],
      "stateMutability": "view",
      "type": "function"
    },
    {
      "inputs": [],
      "name": "owner",
      "outputs": [
        {
          "internalType": "address",
          "name": "",
          "type": "address"
        }
      ],
      "stateMutability": "view",
      "type": "function"
    },
    {
      "inputs": [
        {
          "internalType": "address",
          "name": "newOwner",
          "type": "address"
        }
      ],
      "name": "transferOwnerShip",
      "outputs": [],
      "stateMutability": "nonpayable",
      "type": "function"
    },
    {
      "inputs": [],
      "name": "addFunds",
      "outputs": [],
      "stateMutability": "payable",
      "type": "function"
    },
    {
      "inputs": [],
      "name": "GetAllFunders",
      "outputs": [
        {
          "internalType": "address[]",
          "name": "",
          "type": "address[]"
        }
      ],
      "stateMutability": "view",
      "type": "function"
    },
    {
      "inputs": [
        {
          "internalType": "uint256",
          "name": "withdrawAmount",
          "type": "uint256"
        }
      ],
      "name": "withdraw",
      "outputs": [],
      "stateMutability": "nonpayable",
      "type": "function"
    }
  ],
  "bytecode": "0x608060405234801561001057600080fd5b5033600360006101000a81548173ffffffffffffffffffffffffffffffffffffffff021916908373ffffffffffffffffffffffffffffffffffffffff16021790555061097b806100616000396000f3fe6080604052600436106100555760003560e01c806307d35b6c1461005a5780632e1a7d4d146100855780638863dd1a146100ae5780638da5cb5b146100d7578063a26759cb14610102578063dc79a7fc1461010c575b600080fd5b34801561006657600080fd5b5061006f610137565b60405161007c919061062a565b60405180910390f35b34801561009157600080fd5b506100ac60048036038101906100a79190610687565b610230565b005b3480156100ba57600080fd5b506100d560048036038101906100d091906106e0565b61031c565b005b3480156100e357600080fd5b506100ec6103f0565b6040516100f9919061071c565b60405180910390f35b61010a610416565b005b34801561011857600080fd5b50610121610534565b60405161012e9190610746565b60405180910390f35b60606000805467ffffffffffffffff81111561015657610155610761565b5b6040519080825280602002602001820160405280156101845781602001602082028036833780820191505090505b50905060005b600054811015610228576002600082815260200190815260200160002060009054906101000a900473ffffffffffffffffffffffffffffffffffffffff168282815181106101db576101da610790565b5b602002602001019073ffffffffffffffffffffffffffffffffffffffff16908173ffffffffffffffffffffffffffffffffffffffff16815250508080610220906107ee565b91505061018a565b508091505090565b670de0b6b3a76400008110806102935750600360009054906101000a900473ffffffffffffffffffffffffffffffffffffffff1673ffffffffffffffffffffffffffffffffffffffff163373ffffffffffffffffffffffffffffffffffffffff16145b6102d2576040517f08c379a00000000000000000000000000000000000000000000000000000000081526004016102c9906108b9565b60405180910390fd5b3373ffffffffffffffffffffffffffffffffffffffff166108fc829081150290604051600060405180830381858888f19350505050158015610318573d6000803e3d6000fd5b5050565b600360009054906101000a900473ffffffffffffffffffffffffffffffffffffffff1673ffffffffffffffffffffffffffffffffffffffff163373ffffffffffffffffffffffffffffffffffffffff16146103ac576040517f08c379a00000000000000000000000000000000000000000000000000000000081526004016103a390610925565b60405180910390fd5b80600360006101000a81548173ffffffffffffffffffffffffffffffffffffffff021916908373ffffffffffffffffffffffffffffffffffffffff16021790555050565b600360009054906101000a900473ffffffffffffffffffffffffffffffffffffffff1681565b6000339050600160008273ffffffffffffffffffffffffffffffffffffffff1673ffffffffffffffffffffffffffffffffffffffff16815260200190815260200160002060009054906101000a900460ff16610531576000806000815480929190610480906107ee565b91905055905060018060008473ffffffffffffffffffffffffffffffffffffffff1673ffffffffffffffffffffffffffffffffffffffff16815260200190815260200160002060006101000a81548160ff021916908315150217905550816002600083815260200190815260200160002060006101000a81548173ffffffffffffffffffffffffffffffffffffffff021916908373ffffffffffffffffffffffffffffffffffffffff160217905550505b50565b60005481565b600081519050919050565b600082825260208201905092915050565b6000819050602082019050919050565b600073ffffffffffffffffffffffffffffffffffffffff82169050919050565b600061059182610566565b9050919050565b6105a181610586565b82525050565b60006105b38383610598565b60208301905092915050565b6000602082019050919050565b60006105d78261053a565b6105e18185610545565b93506105ec83610556565b8060005b8381101561061d57815161060488826105a7565b975061060f836105bf565b9250506001810190506105f0565b5085935050505092915050565b6000602082019050818103600083015261064481846105cc565b905092915050565b600080fd5b6000819050919050565b61066481610651565b811461066f57600080fd5b50565b6000813590506106818161065b565b92915050565b60006020828403121561069d5761069c61064c565b5b60006106ab84828501610672565b91505092915050565b6106bd81610586565b81146106c857600080fd5b50565b6000813590506106da816106b4565b92915050565b6000602082840312156106f6576106f561064c565b5b6000610704848285016106cb565b91505092915050565b61071681610586565b82525050565b6000602082019050610731600083018461070d565b92915050565b61074081610651565b82525050565b600060208201905061075b6000830184610737565b92915050565b7f4e487b7100000000000000000000000000000000000000000000000000000000600052604160045260246000fd5b7f4e487b7100000000000000000000000000000000000000000000000000000000600052603260045260246000fd5b7f4e487b7100000000000000000000000000000000000000000000000000000000600052601160045260246000fd5b60006107f982610651565b91507fffffffffffffffffffffffffffffffffffffffffffffffffffffffffffffffff820361082b5761082a6107bf565b5b600182019050919050565b600082825260208201905092915050565b7f552063616e74207769746864726177206d6f7265207468616e2031206574686560008201527f7200000000000000000000000000000000000000000000000000000000000000602082015250565b60006108a3602183610836565b91506108ae82610847565b604082019050919050565b600060208201905081810360008301526108d281610896565b9050919050565b7f6f6e6c7920746865206f776e65722063616e20646f2074686174000000000000600082015250565b600061090f601a83610836565b915061091a826108d9565b602082019050919050565b6000602082019050818103600083015261093e81610902565b905091905056fea26469706673582212207af4fa30df8ca51649ccab039e3568c6ae9ad37cab2d26885697bcbcb618c1ec64736f6c63430008110033",
  "immutableReferences": {},
  "source": "// SPDX-License-Identifier: MIT\r\npragma solidity >=0.4.22 <0.9.0;\r\n \r\ncontract Simplebank {\r\n   uint public numberOfFunders;\r\n   mapping(address => bool) private funders;\r\n   mapping(uint => address) private lutFunders;\r\n   address public owner;\r\n   \r\n   constructor(){\r\n    owner = msg.sender;\r\n   }\r\n\r\n   modifier onlyOwner(){\r\n    require(msg.sender == owner, \"only the owner can do that\");\r\n    _;\r\n   }\r\n\r\n   function transferOwnerShip(address newOwner) external onlyOwner{\r\n    owner = newOwner;\r\n   }\r\n\r\n\r\n\r\n  function addFunds() external payable{\r\n    address funder = msg.sender;\r\n    if(!funders[funder]) {\r\n      uint index = numberOfFunders ++;\r\n      funders[funder] = true;\r\n      lutFunders[index] = funder;\r\n    }\r\n  }\r\n  function GetAllFunders() external view returns(address[] memory) {\r\n    address[] memory _funders = new address[](numberOfFunders);\r\n    for(uint i=0; i<numberOfFunders; i++){\r\n      _funders[i] = lutFunders[i];\r\n    }\r\n      return _funders;\r\n  }\r\n  function withdraw(uint withdrawAmount) external {\r\n    require(withdrawAmount < 1000000000000000000 || msg.sender == owner, \"U cant withdraw more than 1 ether\");\r\n    payable (msg.sender).transfer(withdrawAmount);\r\n  }\r\n}\r\n\r\n\r\n//const instance = await Simplebank.deployed()\r\n//instance.addFunds({value:\"500000000000000000\", from: accounts[0]})\r\n//instance.addFunds({value:\"500000000000000000\", from: accounts[1]})\r\n//const funds = instance.funds()\r\n//instance.GetAllFunders()\r\n//instance.withdraw(1)\r\n//instance.transferOwnerShip(\"0x23ac9d39695D844b4c86F5B7C4C98B7a7928A98e\")",
  "sourcePath": "C:\\Users\\rapha\\OneDrive - Azrieli - Jerusalem College of Engineering\\tech 2023\\Solidity01\\contracts\\Simplebank.sol",
  "compiler": {
    "name": "solc",
    "version": "0.8.17+commit.8df45f5f.Emscripten.clang"
  },
  "schemaVersion": "3.4.11",
  "updatedAt": "2023-01-12T14:02:15.263Z",
  "devdoc": {
    "kind": "dev",
    "methods": {},
    "version": 1
  },
  "userdoc": {
    "kind": "user",
    "methods": {},
    "version": 1
  }
}